{
  "abi": [
    {
      "type": "constructor",
      "inputs": [],
      "stateMutability": "nonpayable"
    },
    {
      "type": "function",
      "name": "owner",
      "inputs": [],
      "outputs": [
        {
          "name": "",
          "type": "address",
          "internalType": "address"
        }
      ],
      "stateMutability": "view"
    },
    {
      "type": "function",
      "name": "transferETH",
      "inputs": [
        {
          "name": "dstChainId",
          "type": "uint16",
          "internalType": "uint16"
        },
        {
          "name": "recipient",
          "type": "address",
          "internalType": "address"
        }
      ],
      "outputs": [],
      "stateMutability": "payable"
    },
    {
      "type": "function",
      "name": "withdraw",
      "inputs": [],
      "outputs": [],
      "stateMutability": "nonpayable"
    },
    {
      "type": "event",
      "name": "Bridge",
      "inputs": [
        {
          "name": "",
          "type": "uint16",
          "indexed": false,
          "internalType": "uint16"
        },
        {
          "name": "",
          "type": "uint256",
          "indexed": false,
          "internalType": "uint256"
        },
        {
          "name": "",
          "type": "address",
          "indexed": false,
          "internalType": "address"
        }
      ],
      "anonymous": false
    }
  ],
  "bytecode": {
    "object": "0x608060405234801561001057600080fd5b50600080546001600160a01b031916331790556101d3806100326000396000f3fe6080604052600436106100345760003560e01c80633ccfd60b146100395780638da5cb5b146100505780639f561b991461008c575b600080fd5b34801561004557600080fd5b5061004e61009f565b005b34801561005c57600080fd5b50600054610070906001600160a01b031681565b6040516001600160a01b03909116815260200160405180910390f35b61004e61009a366004610151565b610102565b600080546040516001600160a01b039091169047908381818185875af1925050503d80600081146100ec576040519150601f19603f3d011682016040523d82523d6000602084013e6100f1565b606091505b50509050806100ff57600080fd5b50565b6040805161ffff841681523460208201526001600160a01b0383168183015290517ffdd78434126afe2ffee5aa40532ebb71fe2eaff4b3e1337e39ebd466252eaca19181900360600190a15050565b6000806040838503121561016457600080fd5b823561ffff8116811461017657600080fd5b915060208301356001600160a01b038116811461019257600080fd5b80915050925092905056fea26469706673582212202b5b117bfa94945d5ba0117f09628c3803f5b6555eb94d9ec369d1ff05f317ca64736f6c63430008140033",
    "linkReferences": {}
  },
  "methodIdentifiers": {
    "owner()": "8da5cb5b",
    "transferETH(uint16,address)": "9f561b99",
    "withdraw()": "3ccfd60b"
  },
  "id": 0
}